:020000040000fa
:080000000002040000000000f2
:020000040000fa
:0400080006030000eb
:020000040000fa
:04000c0048030000a5
:020000040000fa
:04001000a803000041
:020000040000fa
:0400140026030000bf
:020000040000fa
:040018006803000079
:020000040000fa
:04001c008803000055
:020000040000fa
:04002000c803000011
:020000040000fa
:0400240010050000c3
:020000040000fa
:040028004a04000086
:020000040000fa
:04002c0010050000bb
:020000040000fa
:0400300010050000b7
:020000040000fa
:0400340014040000b0
:020000040000fa
:0400380010050000af
:020000040000fa
:04003c0010050000ab
:020000040000fa
:0400400010050000a7
:020000040000fa
:04004400a404000010
:020000040000fa
:04004800da040000d6
:020000040000fa
:04004c00100500009b
:020000040000fa
:040050001005000097
:020000040000fa
:040054001005000093
:020000040000fa
:04005800100500008f
:020000040000fa
:04005c00100500008b
:020000040000fa
:040060001005000087
:020000040000fa
:040064001005000083
:020000040000fa
:04006800100500007f
:020000040000fa
:04006c00100500007b
:020000040000fa
:040070001005000077
:020000040000fa
:040074001005000073
:020000040000fa
:040078006804000018
:020000040000fa
:04007c00100500006b
:020000040000fa
:040080001005000067
:020000040000fa
:040084001005000063
:020000040000fa
:04008800100500005f
:020000040000fa
:04008c00100500005b
:020000040000fa
:040090001005000057
:020000040000fa
:040094001005000053
:020000040000fa
:04009800100500004f
:020000040000fa
:04009c0086040000d6
:020000040000fa
:0400a0001005000047
:020000040000fa
:0400a4001005000043
:020000040000fa
:0400a800100500003f
:020000040000fa
:0400ac00100500003b
:020000040000fa
:0400b0001005000037
:020000040000fa
:0400b4001005000033
:020000040000fa
:0400b800100500002f
:020000040000fa
:0400bc00100500002b
:020000040000fa
:0400c0001005000027
:020000040000fa
:0400c4001005000023
:020000040000fa
:0400c800100500001f
:020000040000fa
:0400cc00100500001b
:020000040000fa
:0400d0001005000017
:020000040000fa
:0400d4001005000013
:020000040000fa
:0400d800100500000f
:020000040000fa
:0400dc00100500000b
:020000040000fa
:0400e0001005000007
:020000040000fa
:0400e4001005000003
:020000040000fa
:0400e80010050000ff
:020000040000fa
:0400ec0010050000fb
:020000040000fa
:0400f00010050000f7
:020000040000fa
:0400f40010050000f3
:020000040000fa
:0400f80010050000ef
:020000040000fa
:0400fc0010050000eb
:020000040000fa
:0401000010050000e6
:020000040000fa
:0401040010050000e2
:020000040000fa
:0401080010050000de
:020000040000fa
:04010c0010050000da
:020000040000fa
:0401100010050000d6
:020000040000fa
:0401140010050000d2
:020000040000fa
:0401180010050000ce
:020000040000fa
:04011c0010050000ca
:020000040000fa
:0401200010050000c6
:020000040000fa
:0401240010050000c2
:020000040000fa
:0401280010050000be
:020000040000fa
:04012c0010050000ba
:020000040000fa
:0401300010050000b6
:020000040000fa
:0401340010050000b2
:020000040000fa
:0401380010050000ae
:020000040000fa
:04013c0010050000aa
:020000040000fa
:0401400010050000a6
:020000040000fa
:0401440010050000a2
:020000040000fa
:04014800100500009e
:020000040000fa
:04014c00100500009a
:020000040000fa
:040150001005000096
:020000040000fa
:040154001005000092
:020000040000fa
:04015800100500008e
:020000040000fa
:04015c00100500008a
:020000040000fa
:040160001005000086
:020000040000fa
:040164001005000082
:020000040000fa
:04016800100500007e
:020000040000fa
:04016c00100500007a
:020000040000fa
:040170001005000076
:020000040000fa
:040174001005000072
:020000040000fa
:04017800100500006e
:020000040000fa
:04017c00100500006a
:020000040000fa
:040180001005000066
:020000040000fa
:040184001005000062
:020000040000fa
:04018800100500005e
:020000040000fa
:04018c00100500005a
:020000040000fa
:040190001005000056
:020000040000fa
:040194001005000052
:020000040000fa
:04019800100500004e
:020000040000fa
:04019c00100500004a
:020000040000fa
:0401a0001005000046
:020000040000fa
:0401a4001005000042
:020000040000fa
:0401a800100500003e
:020000040000fa
:0401ac00100500003a
:020000040000fa
:0401b0001005000036
:020000040000fa
:0401b4001005000032
:020000040000fa
:0401b800100500002e
:020000040000fa
:0401bc00100500002a
:020000040000fa
:0401c0001005000026
:020000040000fa
:0401c4001005000022
:020000040000fa
:0401c800100500001e
:020000040000fa
:0401cc00100500001a
:020000040000fa
:0401d0001005000016
:020000040000fa
:0401d4001005000012
:020000040000fa
:0401d800100500000e
:020000040000fa
:0401dc00100500000a
:020000040000fa
:0401e0001005000006
:020000040000fa
:0401e4001005000002
:020000040000fa
:0401e80010050000fe
:020000040000fa
:0401ec0010050000fa
:020000040000fa
:0401f00010050000f6
:020000040000fa
:0401f40010050000f2
:020000040000fa
:0401f80010050000ee
:020000040000fa
:0401fc0010050000ea
:020000040000fa
:0402000010050000e5
:020000040000fa
:0402040010050000e1
:020000040000fa
:0402080010050000dd
:020000040000fa
:04020c0010050000d9
:020000040000fa
:0402100010050000d5
:020000040000fa
:0402140010050000d1
:020000040000fa
:0402180010050000cd
:020000040000fa
:04021c0010050000c9
:020000040000fa
:0402200010050000c5
:020000040000fa
:0402240010050000c1
:020000040000fa
:0402280010050000bd
:020000040000fa
:04022c0010050000b9
:020000040000fa
:0402300010050000b5
:020000040000fa
:0402340010050000b1
:020000040000fa
:0402380010050000ad
:020000040000fa
:04023c0010050000a9
:020000040000fa
:0402400010050000a5
:020000040000fa
:0402440010050000a1
:020000040000fa
:04024800100500009d
:020000040000fa
:04024c001005000099
:020000040000fa
:040250001005000095
:020000040000fa
:040254001005000091
:020000040000fa
:04025800100500008d
:020000040000fa
:04025c001005000089
:020000040000fa
:040260001005000085
:020000040000fa
:040264001005000081
:020000040000fa
:04026800100500007d
:020000040000fa
:04026c001005000079
:020000040000fa
:040270001005000075
:020000040000fa
:040274001005000071
:020000040000fa
:04027800100500006d
:020000040000fa
:04027c001005000069
:020000040000fa
:040280001005000065
:020000040000fa
:040284001005000061
:020000040000fa
:04028800100500005d
:020000040000fa
:04028c001005000059
:020000040000fa
:040290001005000055
:020000040000fa
:040294001005000051
:020000040000fa
:04029800100500004d
:020000040000fa
:04029c001005000049
:020000040000fa
:0402a0001005000045
:020000040000fa
:0402a4001005000041
:020000040000fa
:0402a800100500003d
:020000040000fa
:0402ac001005000039
:020000040000fa
:0402b0001005000035
:020000040000fa
:0402b4001005000031
:020000040000fa
:0402b800100500002d
:020000040000fa
:0402bc001005000029
:020000040000fa
:0402c0001005000025
:020000040000fa
:0402c4001005000021
:020000040000fa
:0402c800100500001d
:020000040000fa
:0402cc001005000019
:020000040000fa
:0402d0001005000015
:020000040000fa
:0402d4001005000011
:020000040000fa
:0402d800100500000d
:020000040000fa
:0402dc001005000009
:020000040000fa
:0402e0001005000005
:020000040000fa
:0402e4001005000001
:020000040000fa
:0402e80010050000fd
:020000040000fa
:0402ec0010050000f9
:020000040000fa
:0402f00010050000f5
:020000040000fa
:0402f40010050000f1
:020000040000fa
:0402f80010050000ed
:020000040000fa
:0402fc0010050000e9
:020000040000fa
:0403000010050000e4
:020000040000fa
:0403040010050000e0
:020000040000fa
:0403080010050000dc
:020000040000fa
:04030c0010050000d8
:020000040000fa
:0403100010050000d4
:020000040000fa
:100400004f1421000eff24000e01880000000000a0
:10041000000020000000e000020032000001200087
:1004200020028800140007007f0107000000e000a0
:1004300003003a00007c2100010020000200370088
:100440000000200001002000810f70000100320038
:100450000f000700000020000000e0000200320052
:100460000000020000000000541402000000000020
:100470000040da000000fe00200020000000e00044
:1004800002003200100020009001880000000600e9
:10049000a1028800800478000000eb001f003700f4
:1004a000e284440054a0b4009905ba00e2844400f8
:1004b00054a0b4009906ba00e284440054a0b400e9
:1004c0000006eb00476fde00fd07b200ae018800ba
:1004d000636ce10003003a000ad801000000eb0061
:1004e0000e003700606ce10008003a00004deb00a0
:1004f0000a05e800020039003420ec000af0a000f0
:100500008b05e900f9ff3e00040037006168e10057
:10051000010032000086eb000b00070019c7ba008b
:100520000e04e0001905ba0003003a000a00e000da
:10053000dbff3a0000000600fe07b200ae028800b2
:100540008a047800f5ff37000cd0a300e20f4d00bd
:100550001c00390089027800354dba000a05e80010
:10056000020039003420ec000af0a0008b05e900fd
:100570000f003200254dba000a05e80002003900dc
:100580003420ec000af0a0008b05e90008003200de
:100590000c00e0000600320015cdba000a05e800a4
:1005a000020039003420ec000af0a0008b05e900bd
:1005b0008984e80054a0b4000b00e000e2ff3a0098
:1005c000000006009902ba00055d78008b05e9007d
:1005d000f7ff3200c82ade00055d78008b05e900d0
:1005e000f3ff32000c00e000f1ff320019ddba0029
:1005f000eeff3700e415040000000000a016040020
:10060000000000005c170400000000003600f80045
:10061000809fbe00829fbe00849fbe00869fbe005a
:100620000000fa00c028a9000000eb00460b0700fc
:100630000080fa004f03be004f02be004f01be0013
:100640004f00be003600f900004006003600f800fa
:10065000809fbe00829fbe00849fbe00869fbe001a
:100660000000fa003d0b0700c048a9001000200060
:10067000350b07000080fa004f03be004f02be009a
:100680004f01be004f00be003600f90000400600da
:100690003600f800809fbe00829fbe00849fbe008f
:1006a000869fbe000000fa00c068a900200020005c
:1006b000250b07000080fa004f03be004f02be006a
:1006c0004f01be004f00be003600f900004006009a
:1006d0003600f800809fbe00829fbe00849fbe004f
:1006e000869fbe000000fa00c088a90030002000ec
:1006f000150b07000080fa004f03be004f02be003a
:100700004f01be004f00be003600f9000040060059
:100710003600f800809fbe00829fbe00849fbe000e
:10072000869fbe000000fa00c0a8a900400020007b
:10073000050b07000080fa004f03be004f02be0009
:100740004f01be004f00be003600f9000040060019
:100750003600f800809fbe00829fbe00849fbe00ce
:10076000869fbe000000fa00c608a90070002000a5
:10077000f50a07000080fa004f03be004f02be00da
:100780004f01be004f00be003600f90000400600d9
:100790003600f800809fbe00829fbe00849fbe008e
:1007a000869fbe000000fa00214680000010200055
:1007b000008060000000e00003003200c508a900ce
:1007c000c0002000e00a0700214680000000280049
:1007d000008060000000e00003003200c5e8a900ce
:1007e00080002000d80a0700214680000002200077
:1007f000008060000000e00003003200c4a8a900ef
:1008000090002000d00a07002046800070006000a1
:100810000000e00003003200c488a900a00020000e
:10082000c90a0700ffff37003600f800809fbe00ae
:10083000829fbe00849fbe00869fbe000000fa001b
:10084000308080000000e000020032003080800034
:1008500000000100f0132100104078008040e80003
:10086000f013210001487800e013210011c0b3000b
:10087000014878000068a9000080fa004f03be001c
:100880004f02be004f01be004f00be003600f9000f
:10089000004006003600f800809fbe00829fbe0028
:1008a000849fbe00869fbe000000fa007d0a0700fc
:1008b0000008a9000080fa004f03be004f02be00ee
:1008c0004f01be004f00be003600f9000040060098
:1008d0003600f800809fbe00829fbe00849fbe004d
:1008e000869fbe000000fa00730a07000288a90074
:1008f0000080fa004f03be004f02be004f01be0051
:100900004f00be003600f900004006003600f80037
:10091000809fbe00829fbe00849fbe00869fbe0057
:100920000000fa00690a070003a8a9000080fa0085
:100930004f03be004f02be004f01be004f00be007d
:100940003600f900004006003600f800809fbe0027
:10095000829fbe00849fbe00869fbe000000fa00fa
:10096000508080000000e0000200320050808000d3
:100970000000010010142100104078008040e800c1
:1009800010142100014878000014210011c0b300a8
:100990000148780000e8a9000080fa004f03be007b
:1009a0004f02be004f01be004f00be003600f900ee
:1009b000004006003600f800809fbe00829fbe0007
:1009c000849fbe00869fbe000000fa0070808000f9
:1009d0000000e00002003200708080000000010092
:1009e00030142100104078008040e80030142100cd
:1009f000014878002014210011c0b300014878009c
:100a00000108a9000080fa004f03be004f02be009b
:100a10004f01be004f00be003600f9000040060046
:100a20000040da000000fe0000000500889fbe00c4
:100a30008a9fbe0030044200b0844a0030054b005b
:100a400090854b006000b1000898be000a90be007f
:100a50000440e10005c8e10006d0e10007d8e1004c
:100a600002003100680040001008e8004f05be0099
:100a70004f04be0000000600889fbe008a9fbe0093
:100a8000100478009004900020059000b0059000bc
:100a90000418540005985c0006185d0007985d0076
:100aa000110020000440e10005c8e10006d0e1008b
:100ab00007d8e100010039008000eb001088100029
:100ac0004f05be004f04be00000006001200fa00f1
:100ad000889fbe008a9fbe008c9fbe00e0b79f002b
:100ae000f1b79f0082bf9f0093bf9f000605be0025
:100af0000404be000000eb00d0b79f00c0b79f0009
:100b0000b0b79f00a0b79f0090b79f000006780085
:100b10005fb19700cfb09700820141003fb09700ce
:100b20000200e00004003d00370007007e8057000f
:100b3000beff070003003700330007007e80570028
:100b4000cdff0700dfb697000d00e0000c00350078
:100b50006fb29700ffb297000fbb97009fbb970043
:100b600010002000010020006011b8000002720097
:100b70008182720002037300838373001b000700ed
:100b80000c06e80001042000810f5600e0ff3a0047
:100b90000d00e00004003d000802be000a03be0094
:100ba0007e805700a1ff07005fa897000000e000cb
:100bb00005003a001fb29700afb297003fb397000d
:100bc000cfb39700090007006fb09700ffb0970000
:100bd0000fb997009fb997004f06be004f05be00a2
:100be0004f04be000080fa0000000600010007006c
:100bf00000000600a4b79f00b5b79f00c6b79f00ce
:100c0000d7b79f00000006004f09de008281710007
:100c1000b3b79f004f01de008180400082807000ea
:100c2000a1b79f008fb097004f09de000000400081
:100c30000200700090b79f007fa897004f01de0070
:100c4000818040008280700081b79f000d00070006
:100c50004f3ade000000400004007000f0af9f003b
:100c6000080007000402420085824a0006034b0088
:100c700087834b00dfff07000802be000a03be00a7
:100c8000000006002fb29700bfb297004fb3970045
:100c9000dfb3970000000600881f780018002000ce
:100ca000881f780089ff07008f87e9004f047800cc
:100cb00000000600801feb0084ff07008f87e9001b
:100cc00000000600889fbe008a9fbe00e00f500013
:100cd000e08f5800e00f5900e08f59000c003d00f4
:100ce0006044b8006055b8000000540081805c008a
:100cf00002015d0083815d001800200015000700df
:100d000008003d00180007000004eb000500370054
:100d10000004eb000f00070002003d001200070076
:100d200018002000dcff07000800e0000600320089
:100d30006022b8006033b8000000520081805a0081
:100d400002015b0083815b004f05be004f04be00c3
:100d500000000600e00f5200e08f5a00e00f5b0039
:100d6000e08f5b00000006006044b8006055b800ea
:100d70000402540085825c0006035d0087835d00e9
:100d800000000600889fbe008a9fbe008c1f78006e
:100d9000e00f5000e08f5800e00f5900e08f59003d
:100da0000d003d006044b8006055b80000005400dc
:100db00081805c0002015d0083815d001c002000d9
:100dc0000820e10009a8e1000ab0e1000bb8e10049
:100dd0000d003d00080037000006eb00e00f520058
:100de000e08f5a00e00f5b00e08f5b0006003d00e3
:100df0006044b8006055b8000402540085825c006d
:100e000006035d0087835d00aaff07000c00e00079
:100e1000060032006022b8006033b80000005200c3
:100e200081805a0002015b0083815b004f067800dd
:100e30004f05be004f04be0000000600889fbe00a4
:100e40008a9fbe008c1f78000006eb00e00f500068
:100e5000e08f5800e00f5900e08f590007003d0077
:100e60006044b8006055b8000000540081805c0008
:100e700002015d0083815d001c002000e00f520034
:100e8000e08f5a00e00f5b00e08f5b0007003d0041
:100e90006044b8006055b8000402540085825c00cc
:100ea00006035d0087835d000c00a2000c000700b4
:100eb0000c00e000060032006022b8006033b80089
:100ec0000000520081805a0002015b0083815b00b8
:100ed0004f0678004f05be004f04be00000006001c
:100ee000889fbe008a9fbe008c9fbe000404b8008d
:100ef0000506b8008904460060854e000606b80065
:100f00000a054600e0854e000706b8008b0546003e
:100f1000040eb800890446000a854e00e0854d00a5
:100f2000050eb8000a0546008b854e00060eb80077
:100f30008b0546000416b8000a0546008b854e0056
:100f40000516b8008b054600041eb8008b05460048
:100f50000800be000a01be004f06be004f05be00dd
:080f60004f04be000000060072
:020000040000fa
:100f68000200fa00000f78001e0078001040780098
:100f7800e34f500004003a001e0078003040900013
:100f8800e84f5000280032001e007800104078001a
:100f9800e14f500004003a001e00780030409000f5
:100fa800e74f5000200032001e00780010409000eb
:100fb800e34f500004003a001e00780040409000c3
:100fc800e84f5000180032001e00780010409000d2
:100fd800e14f500004003a001e00780040409000a5
:100fe800e74f5000100032001e00780020409000ab
:100ff800e34f500004003a001e0078005040900073
:10100800e84f5000080032001e0078002040900091
:10101800e14f500032003a001e0078005040900026
:10102800e74f50002e003a001e0078003040900034
:10103800e84f500004003a001e00780080c0eb0022
:1010480001487800070037001e0078003040900003
:10105800e74f500003003a001e007800f1c7b300c4
:10106800014878001e00780040409000e84f50008a
:1010780004003a001e00780080c0eb001140980080
:10108800070037001e00780040409000e74f5000ee
:1010980003003a001e007800f1c7b3001140980021
:1010a8001e00780050409000e84f500004003a00bd
:1010b8001e00780080c0eb00214098001f00370018
:1010c8001e00780050409000e74f50001a003a0088
:1010d8001e007800f1c7b3002140980017003700c0
:1010e8001e007800104078000080fb000000d1004e
:1010f800804078001e007800014878001e007800c3
:10110800104090000080fb000000d1008040780073
:101118001e007800114098001e00780020409000c2
:101128000080fb000000d100804078001e0078009d
:101138002140980001003700000000000080fa00fc
:10114800000006000000fa00008080000000e000b7
:1011580015003200408080000000e00012003200dc
:101168000000eb0089060700c07080004600de0022
:101178006140600000c0ea00614060000080fb0040
:10118800610060004600dd00c17080000160a100c0
:1011980001007000c07088000030ef000830ef00d8
:1011a80010002000020037000030ef000000eb00c4
:1011b8000080fa00000006000000fa00108080009d
:1011c8000000e00015003200408080000000e000d0
:1011d800120032000000eb006c060700c0708000af
:1011e8004600de006140600000c0ea006140600027
:1011f8000080fb00610060004600dd00c1708000d7
:101208000160a10001007000c07088000230ef008a
:101218000830ef0010002000020037000230ef0015
:101228000000eb000080fa00000006000000fa0051
:10123800208080000000e00015003200408080001f
:101248000000e000120032000000eb004f0607002b
:10125800c07080004600de006140600000c0ea0007
:10126800614060000080fb00610060004600dd0016
:10127800c17080000160a10001007000c07088008a
:101288000430ef000830ef001000200002003700a3
:101298000430ef000000eb000080fa0000000600b8
:1012a8000000fa00190ea800190ea800190ea800cf
:1012b800190ea9000080fa00000006000000fa00dc
:1012c800190ea800190ea9000080fa0000000600f7
:1012d8000200fa00004f78001e4078000004e00089
:1012e80002003d00eeff070001003700f3ff070092
:1012f8009e80fb0000042000008060000000e000e9
:1013080002003200e6ff070001003700ebff07008c
:101318009e80fb0000022000008060000000e000ca
:1013280002003200deff070001003700e3ff07007c
:101338001e80fb00700060000000e0000200320028
:10134800d7ff070001003700dcff07001e80fb0005
:10135800680060000000e00002003200d0ff0700d3
:1013680001003700d5ff07001e80fb006400600005
:101378000000e00002003200c9ff0700010037004a
:10138800ceff07001e80fb00620060000000e00046
:1013980002003200c2ff070001003700c7ff070044
:1013a8001e80fb0061006000004078000004e0003f
:1013b80002003200baff070001003700bfff070034
:1013c8000080fa00000006000400fa00004f7800d0
:1013d80011479800224798001e409000bcff070064
:1013e8001e407800baff07002e409000b8ff0700a3
:1013f8000080fa00000006000200fa00c3e8a90015
:101408000000eb00000f7800130037009180800087
:101418001e007800e300b9000080e800008040006a
:1014280010417800918080001e007800e300b90028
:101438000000e80000804000904078009380800021
:101448001e007800e300b9000080410010407800d9
:10145800ddff07001e0fe800b00320009e007800a3
:10146800808f5000e9ff3400c3e8a8000080fa002c
:10147800000006000200fa000000eb00000f7800f0
:1014880015003700918080001e007800e300b90045
:10149800008040008040eb00014878009180800087
:1014a8001e007800e300b9000000e800008040005a
:1014b8008040eb0001487800918080001e00780091
:1014c800e300b9000080e800008040008040eb00a5
:1014d800014878001e0fe800b00320009e00780045
:1014e800808f5000e7ff3400c3ff07000080fa0038
:1014f800000006000600fa002047980031479800cf
:10150800424798000000eb00000f78000000eb0055
:10151800000f780015003700918080001e007800c9
:10152800e300b90000804000ae4090000148780018
:10153800918080001e007800e300b9000000e800f8
:1015480000804000be4090000148780091808000f3
:101558001e007800e300b9000080e8000080400029
:10156800ce409000014878001e0fe800b00320002c
:101578009e007800808f5000e7ff34009eff070030
:101588000080fa00000006001200fa0070079800b8
:101598000157980080002000400798007000200044
:1015a80050079800c080800000004000fe009000b6
:1015b80000804000100f78000000eb001007980032
:1015c800ce00900021079800aaff0700bf0037004f
:1015d8001e0090008000e900c00320000001780090
:1015e800110009008200d8008000fd000000e00022
:1015f800080035001e0090008000e900c0032000ac
:1016080000017800110009008200d8008000fd0068
:10161800080037001e0090008000e900c003200089
:1016280000017800110009008200d8008000fd0048
:10163800c003b00060079800918080006e009000a1
:10164800e300b900008040008040eb0001487800ca
:10165800918080006e009000e300b9000000e8006f
:10166800008040008040eb000148780091808000b5
:101678006e009000e300b9000080e80000804000a0
:101688008040eb00014878009e00900031079800e8
:1016980031003700918080003e009000e300b900df
:1016a800008040009e007800914078000148780052
:1016b800918080003e009000e300b9000000e8003f
:1016c800008040009e00780091409000014878001a
:1016d800918080003e009000e300b9000080e8009f
:1016e800008040009e007800a140900001487800ea
:1016f8003e0090008000e800c00320000001780050
:10170800110009008200d8008000fd000000e00000
:10171800080035003e0090008000e800c00320006b
:1017280000017800110009008200d8008000fd0047
:10173800080037003e0090008000e800c003200049
:1017480000017800110009008200d8008000fd0027
:10175800c003b00030079800be0090002e00900033
:10176800808f5000cbff3a001e0090008000e800f8
:10177800c003200000017800110009008200d80091
:101788008000fd000000e000080035001e00900009
:101798008000e800c0032000000178001100090063
:1017a8008200d8008000fd00080037001e0090006d
:1017b8008000e800c0032000000178001100090043
:1017c8008200d8008000fd00c003b0001007980018
:1017d8002e0090008000e800c0032000000178007f
:1017e800110009008200d8008000fd000000e00020
:1017f800080035002e0090008000e800c00320009b
:1018080000017800110009008200d8008000fd0066
:10181800080037002e0090008000e800c003200078
:1018280000017800110009008200d8008000fd0046
:10183800c003b00020079800effe07005efe070017
:101848000000e000020032001e007800c4fd07001e
:1018580076fe07000000e0000f003200c080800024
:101868000000e800c08088000e5090000080fb0057
:101878008000e900c0808000808f500001003a009d
:101888001830ef00c080800000004000fe0090008b
:1018980000804000100f78005e009000cf80de00ce
:1018a8006109b90004202100a50720006033b800b1
:1018b80060fd0700843e2000050020006033b8006a
:1018c800f3fc07000000be008f0607001dfe07009e
:1018d8000000e0003eff32000080fa000000060031
:1018e8002000fa00600f9800615f9800c000200097
:1018f800100f9800a0002000200f98002000200062
:10190800300f9800c080800000004000ee08900072
:1019180000804000100f7800a08080000000400088
:10192800ee089000008040009000780011079800b1
:101938000000eb00200798001e099000320798006d
:101948000000eb0050079800ae089000610798006f
:101958000040eb0000579800c6fe07008f013700d3
:101968002e0090008000e900c003200000017800ec
:10197800110009008200d8008000fd000000e0008e
:10198800080035002e0090008000e900c003200008
:1019980000017800110009008200d8008000fd00d5
:1019a800080037002e0090008000e900c0032000e6
:1019b80000017800110009008200d8008000fd00b5
:1019c800c003b000400f98005e0090008000e9005e
:1019d800c003200000017800110009008200d8002f
:1019e8008000fd000000e000080035005e00900067
:1019f8008000e900c0032000000178001100090000
:101a08008200d8008000fd00080037005e009000ca
:101a18008000e900c00320000001780011000900df
:101a28008200d8008000fd00c003b000500f98006d
:101a3800918080004e089000e300b90000804000cb
:101a48008040eb0001487800918080004e089000ab
:101a5800e300b9000000e800008040008040eb008f
:101a680001487800918080004e089000e300b9009a
:101a78000080e800008040008040eb0001487800ca
:101a8800918080005e089000e300b900008040006b
:101a98008040eb0001487800918080005e0890004b
:101aa800e300b9000000e800008040008040eb003f
:101ab80001487800918080005e089000e300b9003a
:101ac8000080e800008040008040eb00014878007a
:101ad800ae009000410798005e01900072079800e0
:101ae80031003700918080004e009000e300b9007b
:101af800008040009e0078009140780001487800fe
:101b0800918080004e009000e300b9000000e800da
:101b1800008040009e0078009140900001487800c5
:101b2800918080004e009000e300b9000080e8003a
:101b3800008040009e007800a14090000148780095
:101b48004e0090008000e800c003200000017800eb
:101b5800110009008200d8008000fd000000e000ac
:101b6800080035004e0090008000e800c003200007
:101b780000017800110009008200d8008000fd00f3
:101b8800080037004e0090008000e800c0032000e5
:101b980000017800110009008200d8008000fd00d3
:101ba800c003b00040079800ce0090003e009000af
:101bb800808f5000cbff3a003100370091808000c1
:101bc8007e009000e300b900008040009e00900075
:101bd8009140780001487800918080007e00900054
:101be800e300b9000000e800008040009e0090007b
:101bf8009140900001487800918080007e0090001c
:101c0800e300b9000080e800008040009e009000da
:101c1800a1409000014878007e0090008000e80014
:101c2800c003200000017800110009008200d800dc
:101c38008000fd000000e000080035007e009000f4
:101c48008000e800c00320000001780011000900ae
:101c58008200d8008000fd00080037007e00900058
:101c68008000e800c003200000017800110009008e
:101c78008200d8008000fd00c003b0007007980003
:101c8800fe0090006e009000808f5000cbff3a005d
:101c98000e5090000081fb00d0cc2c000010b80042
:101ca8004208de00e500b90000005100004078005d
:101cb8000004e0000a0032000e5090000081fb0092
:101cc800d0cc2c000010b8004208de00e500b900b6
:101cd8000000510000407800e14f500035003a0004
:101ce8002e0090008000e800c0032000000178006a
:101cf800110009008200d8008000fd000000e0000b
:101d0800080035002e0090008000e800c003200085
:101d180000017800110009008200d8008000fd0051
:101d2800080037002e0090008000e800c003200063
:101d380000017800110009008200d8008000fd0031
:101d4800c003b000200798003e0090008000e80023
:101d5800c003200000017800110009008200d800ab
:101d68008000fd000000e000080035003e00900003
:101d78008000e800c003200000017800110009007d
:101d88008200d8008000fd00080037003e00900067
:101d98008000e800c003200000017800110009005d
:101da8008200d8008000fd00c003b0003007980012
:101db800340037005e0090008000e800c003200077
:101dc80000017800110009008200d8008000fd00a1
:101dd8000000e000080035005e0090008000e80088
:101de800c003200000017800110009008200d8001b
:101df8008000fd00080037005e0090008000e800c9
:101e0800c003200000017800110009008200d800fa
:101e18008000fd00c003b000500798006e009000dd
:101e28008000e800c00320000001780011000900cc
:101e38008200d8008000fd000000e00008003500a6
:101e48006e0090008000e800c003200000017800c8
:101e5800110009008200d8008000fd00080037004a
:101e68006e0090008000e800c003200000017800a8
:101e7800110009008200d8008000fd00c003b000f6
:101e8800600798000e5090000080fb008000e8007a
:101e98005000200000017800110009008200d800dd
:101ea8008000fd000057980053fd0700c2fc0700a2
:101eb8000000e000040032001e00780028fc070043
:101ec8001e00900026fc0700d8fc07000000e00078
:101ed80025003200b1708000000021000080600001
:101ee8000000e00010003200c08080000000e80020
:101ef800c08088006e5890000080fb008000e900d8
:101f0800c0808000808f500001003a001830ef0038
:101f1800c080800000004000ee0890000080400073
:101f2800100f780010003700a08080000000e80043
:101f3800a08088006e5890000080fb008000e900b7
:101f4800a0808000808f500001003a001430ef001c
:101f5800a080800000004000ee0890000080400053
:101f680090007800110798003e089000cf80de00ae
:101f78006109b90004202100a50720006033b800da
:101f8800acfb0700843e2000050020006033b80049
:101f98003ffb07000000be00db04070069fc0700e8
:101fa8000000e0006efe32000080fa00000006002b
:101fb8001600fa00100f980041579800c080800062
:101fc800000040009e08900000804000100f78003c
:101fd80028fd07000000eb00100798001000200003
:101fe800200798000000eb00300798000000eb0085
:101ff800500798006e0137002e0090000000e000a6
:10200800550032003e0090000000e0003a00320027
:10201800918080001e009000e300b900808040009d
:102028004e009000000040001e0990000000410092
:102038001000780010407800804878009180800077
:102048001e009000e300b9000000e8008080400016
:102058004e009000000040001e0990000000410062
:10206800100078001040900080487800918080002f
:102078001e009000e300b9000080e8008080400066
:102088004e009000000040001e0990000000410032
:102098001000780020409000804878005e00900092
:1020a8008000e800500020000001780011000900bd
:1020b8008200d8008000fd00500798005e00900064
:1020c8000000e00003003a004e0090000000e80025
:1020d800400798004e5090000080fb008000e90007
:1020e8004e009000808f50002f003a001000200012
:1020f800400798002c003700918080001e00900057
:10210800e300b900008040009e007800914078000c
:1021180001487800918080001e009000e300b9001b
:102128000000e800008040009e0078009140900088
:1021380001487800918080001e009000e300b900fb
:102148000080e800008040009e007800a1409000d8
:102158000148780014003700918080001e0090002c
:10216800e300b900008040008040eb00014878009f
:10217800918080001e009000e300b9000000e80094
:10218800008040008040eb0001487800918080008a
:102198001e009000e300b9000080e80000804000c5
:1021a8008040eb00014878009e009000b0032000ba
:1021b800808f500008003a002e00900000f0a70021
:1021c8000000ea000000e9004f00de002007980048
:1021d8000080eb001007980087fc0700f6fb07005b
:1021e8000000e0003d0032003e0090000000e000ea
:1021f8003a003a001e00780059fb07000000eb0087
:102208006007980031003700918080006e009000d0
:10221800e300b90000804000104078000004e000ae
:1022280010003a00918080006e009000e300b90031
:102238000000e80000804000104078000004e00042
:1022480008003a00918080006e009000e300b90019
:102258000080e80000804000104078000004e000a2
:1022680017003200918080006e009000e300b900f2
:10227800008040009e007800914078000148780076
:10228800918080006e009000e300b9000000e80033
:10229800008040009e00780091409000014878003e
:1022a800918080006e009000e300b9000080e80093
:1022b800008040009e007800a1409000014878000e
:1022c8006e0090000000e80060079800ee009000a3
:1022d800b0032000808f5000cbff3400d3fb0700f1
:1022e8000000e000ac003200c08080000000e80080
:1022f800c08088004e5090000080fb008000e900fc
:10230800c0808000808f500061003a000080eb00a0
:10231800c0808800100020004007980010002000ae
:10232800300798000000eb00700798005300370052
:10233800918080007e009000e300b900008040009a
:10234800104078000004e00010003a0091808000fe
:102358007e009000e300b9000000e8000080400023
:10236800104078000004e00008003a0091808000e6
:102378007e009000e300b9000080e8000080400083
:10238800104078000004e00039003200918080009d
:102398007e009000e300b900808040004e0090006d
:1023a800000040001e099000000041001000780065
:1023b8001040780080487800918080007e0090006e
:1023c800e300b9000000e800808040004e00900063
:1023d800000040001e099000000041001000780035
:1023e8001040900080487800918080007e00900026
:1023f800e300b9000080e800808040004e009000b3
:10240800000040001e099000000041001000780004
:1024180020409000804878005e0090008000e8002e
:102428005000200000017800110009008200d80047
:102438008000fd00500798005e0090000000e0005a
:1024480003003a004e0090000000e80040079800a2
:102458004e5090000080fb008000e9004e00900084
:10246800808f500002003a001000200040079800ba
:102478007e0090000000e80070079800fe009000c1
:10248800b0032000808f5000a9ff340042003700bd
:102498003e0090000000e000020032000000eb0067
:1024a80030079800c0808000000040009e0890001f
:1024b80000804000100f78000000eb00000f98002b
:1024c80031003700918080000e089000e300b900c9
:1024d80000804000104078000004e00010003a003e
:1024e800918080000e089000e300b9000000e80029
:1024f80000804000104078000004e00008003a0026
:10250800918080000e089000e300b9000080e80088
:1025180000804000104078000004e00017003200fe
:10252800918080000e089000e300b9000080400010
:102538009e007800914078000148780091808000e2
:102548000e089000e300b9000000e8000080400099
:102558009e007800914090000148780091808000aa
:102568000e089000e300b9000080e80000804000f9
:102578009e007800a1409000014878000e08900065
:102588000000e800000f98008e089000b0032000bb
:10259800808f5000cbff34001e0090000000e80040
:1025a8001007980000a821006100200056030700ca
:1025b800e4fa07000000e0008ffe32003e009000c1
:1025c8000000e000010032001830ef000080fa003f
:1025d800000006000a00fa0030079800014f980032
:1025e800a4fb07000000eb00000f7800c08080000b
:1025f80000004000be00900000804000900078007d
:1026080011079800a080800000004000be009000e4
:102618000080400090007800210798006c00370087
:10262800608080000000e000210032001e00780079
:102638000000e0000f0032001e00900020419000d2
:102648001e009000904090001e00900010407800fe
:10265800a8fb07001e00780000f0a7000000ea00b1
:10266800000fe9001e0078004f00de00000f780020
:102678000e0037002e009000204190002e009000a0
:10268800904090002e0090001040780099fb0700c1
:102698001e00780000f0a7000000ea00000fe90023
:1026a8001e0078004f00de00000f78000c30ef00ad
:1026b800c1fa07000000e000040032001e0090008c
:1026c80027fa07002e00900025fa0700d7fa07001e
:1026d8000000e0003e003200b170800000002100e0
:1026e800008060000000e0001d003200c080800013
:1026f8000000e800c08088000e4890008080fb0041
:10270800c0808000808f500001003a001830ef0030
:102718000e4890000080fb008000e900c080800027
:10272800808f500007003a000e4890000080fb00a0
:102738008000e900a0808000808f500001003a00ee
:102748001830ef00c080800000004000be009000fc
:102758000080400090007800110798001c003700a6
:10276800a08080000000e800a08088000e4890004b
:102778008080fb00a0808000808f500001003a001c
:102788001430ef000e4890000080fb008000e90044
:10279800c0808000808f500007003a000e489000eb
:1027a8000080fb008000e900a0808000808f50003e
:1027b80001003a001430ef00a080800000004000c3
:1027c800be0090000080400090007800210798002b
:1027d8005cfa07000000e00091ff32000080fa0078
:1027e800000006000600fa0010079800414798000c
:1027f800c0808000000040009e00900000804000e3
:10280800100f7800210037001e007800204190004a
:102818001e007800904090001e007800104078005c
:1028280034fb070064fa07000000e00002003200f1
:102838001e007800caf907007cfa07000000e000d3
:102848000f003200c08080000000e800c0808800cf
:102858004e4090000080fb008000e900c0808000ae
:10286800808f500001003a001830ef00c0808000cf
:10287800000040009e00900000804000100f78008b
:1028880000a82100610020009f0207002dfa070020
:102898000000e000dcff32000080fa0000000600c3
:1028a8000000fa0070020700a1c0b300a0102100c8
:1028b80035fb0700a1c0b300a010210008fc0700e9
:1028c800a1c0b300a010210042ff0700a1c0b300bf
:1028d800a0102100b6fd0700a1c0b300a010210080
:1028e800c0ff0700f0ff37000000fa00003a800040
:1028f8000080fa00000006000200fa00faff070054
:10290800000f78001e007800240007000004e00093
:102918000200320000002800710007001e00780045
:102928002a0007000004e000020032000000240032
:102938006b0007001e007800320007000004e0006a
:102948000200320000202000650007001e00780009
:102958003a0007000004e0000200320000082000ee
:102968005f0007001e007800420007000004e00036
:102978000200320000042000590007001e00780001
:102988004a0007000004e0000200320000012000b5
:10299800530007000080fa00000006000400fa0057
:1029a800100798000040eb00004f78001e009000d0
:1029b8000000e00002003d0010c0b300004f7800a6
:1029c8001e4078000080fa00000006000400fa00ab
:1029d800100798000040eb00004f78009e00900020
:1029e80000002400008060000000e00002003200c7
:1029f80010c0b300004f78001e4078000080fa0035
:102a0800000006000400fa00100798000040eb00e0
:102a1800004f78009e009000002020000080600099
:102a28000000e0000200320010c0b300004f780040
:102a38001e4078000080fa00000006000400fa003a
:102a4800100798000040eb00004f78009e009000af
:102a580000082000008060000000e0000200320052
:102a680010c0b300004f78001e4078000080fa00c4
:102a7800000006000400fa00100798000040eb0070
:102a8800004f78009e009000000420000080600045
:102a98000000e0000200320010c0b300004f7800d0
:102aa8001e4078000080fa00000006000400fa00ca
:102ab800100798000040eb00004f78001e009000bf
:102ac800700060000000e0000200320010c0b30097
:102ad800004f78001e4078000080fa0000000600d1
:102ae8000200fa00000f78009e80ea00003a800099
:102af80000806000003a88000080fa0000000600ac
:102b08000000fa004027ef000080fa0000000600ed
:102b18000000fa000021ef0040e8210010088800ba
:102b28000003280020088800308080000000e000b2
:102b380002003a00405e2100260007000068a90054
:102b48002068a800e01321008040eb0001487800cd
:102b58000080fa00000006000200fa00000f78006a
:102b68009e00780011088800e01321008040eb00e7
:102b7800014878000080fa00000006000000fa0012
:102b8800100880000080fa00000006000200fa0029
:102b9800000f78009e00780001088800e0132100eb
:102ba8008040eb00014878000080fa000000060031
:102bb8000000fa00000880000080fa00000006000b
:102bc8000000fa0010002000408088000080fa0011
:102bd800000006000200fa00000f78002068a90033
:102be8009e007800318088002068a8000080fa00e4
:102bf800000006000000fa00e01321008040eb000e
:102c0800014878002068a80005e1a8000080fa00c3
:102c1800000006000000fa0005e1a9002068a900ec
:102c28000080fa00000006000200fa00e01321000c
:102c3800104f78001e4078000004e00003003200c6
:102c4800e01321008040eb00014878001e40780026
:102c58000080fa00000006000000fa00f0132100ce
:102c6800104078000080fb000080fa000000060099
:102c78000000fa00f01321008040eb0001487800c2
:102c88000080fa00000006000000fa000621ef00ac
:102c9800300d2300600888000003280080088800a1
:102ca800508080000000e00002003a00006a210025
:102cb8002600070000e8a90020e8a8000014210069
:102cc8008040eb00014878000080fa000000060010
:102cd8000200fa00000f78009e0078006108880062
:102ce800001421008040eb00014878000080fa00c1
:102cf800000006000000fa00600880000080fa006a
:102d0800000006000200fa00000f78009e0078001c
:102d180031088800001421008040eb000148780049
:102d28000080fa00000006000000fa003008800069
:102d38000080fa00000006000000fa0010002000e1
:102d4800608088000080fa00000006000200fa0097
:102d5800000f780020e8a9009e00780051808800c4
:102d680020e8a8000080fa00000006000000fa0031
:102d7800001421008040eb000148780020e8a800fa
:102d880011e1a8000080fa00000006000000fa0027
:102d980011e1a90020e8a9000080fa00000006005f
:102da8000200fa0000142100104f78001e4078003d
:102db8000004e00003003200001421008040eb0012
:102dc800014878001e4078000080fa0000000600e4
:102dd8000000fa0010142100104078000080fb0069
:102de8000080fa00000006000000fa00101421001c
:102df8008040eb00014878000080fa0000000600df
:102e08000000fa000a21ef0040e82100700888005d
:102e18000003280090088800708080000000e0000f
:102e280002003a00c0752100260007000108a90029
:102e38002108a800201421008040eb0001487800f8
:102e48000080fa00000006000200fa00000f780077
:102e58009e00780071088800201421008040eb0053
:102e6800014878000080fa00000006000000fa001f
:102e7800700880000080fa00000006000200fa00d6
:102e8800000f78009e007800510888002014210067
:102e98008040eb00014878000080fa00000006003e
:102ea8000000fa00500880000080fa0000000600c8
:102eb8000000fa0010002000808088000080fa00de
:102ec800000006000200fa00000f78002108a9009f
:102ed8009e007800718088002108a8000080fa0010
:102ee800000006000000fa00201421008040eb00da
:102ef800014878002108a80013e1a8000080fa0022
:102f0800000006000000fa0013e1a9002108a9004a
:102f18000080fa00000006000200fa0020142100d8
:102f2800104f78001e4078000004e00003003200d3
:102f3800201421008040eb00014878001e407800f2
:102f48000080fa00000006000000fa00301421009a
:102f5800104078000080fb000080fa0000000600a6
:102f68000000fa00301421008040eb00014878008e
:082f78000080fa0000000600d1
:020000040000fa
:102f80001e1100002000000080000000161000004c
:102f90000200000082000000ffff00003e11000060
:102fa0000200000080000000061000000400000085
:102fb00080000000001000000600000080000000fb
:102fc0004011000002000000800000000a10000014
:102fd0000400000080000000421100000200000018
:102fe000800000000e1000000400000080000000bf
:102ff000d41000004a00000082000000ffffff0024
:1030000008080800ff00000008000000ff7f000023
:1030100008070000ffff00000808000000ff000094
:103020000008000000ffff00000808000000ff008b
:10303000000008008000ff0007000800ff00ff00fc
:1030400008000800d410da0010e01000e610ec00d0
:1030500010f21000f810fe0010041100ce10000055
:103060001a100000ba0000008000000012100000da
:1030700004000000820000001a100100000000009f
:103080001810000002000000800000000000000096
:020000040000fa
:103090000000fa00042eef00182eef00700120004f
:1030a00000708800f0eb2f00a07088000c2eef005d
:1030b000202eef000a2eef0000c82100f0708800db
:1030c000062eef001a2eef003001200070708800ed
:1030d0003020200010718800113a8000f00b200091
:1030e000008160006004200071052000237420002e
:1030f000804978008149780082497800a0c2b300f5
:10310000a1e6b700b0c2b300a2e6b700103a800053
:10311000000178000260a00060042000710520001a
:103120002374200080497800814978008249780022
:103130000080fa00000006000000fa000142800052
:1031400080ff2f00008060000000a0000042880087
:103150005142800080ff2f00008060000000a0002e
:103160005042880071428000f0f82f00008060001b
:103170000040a000704288002142800080ff2f00a4
:10318000008060000000a000204288001142800002
:10319000f0ff28000080600000c0a00010428800fe
:1031a00001428000f0ff28000080600000c0a00005
:1031b000004288000080fa00000006000000fa00cb
:1031c00000102300203a88004827ef004e27ef0028
:1031d00020032000303a88006027ef006227ef00cc
:1031e0006427ef006627ef006a27ef006c27ef00e7
:1031f0006e27ef002200200080072000a109200098
:103200003374200080497800814978008249780031
:103210000001eb00600420007105200023742000f1
:103220008049780081497800824978000080fa005e
:10323000000006000200fa00000f78002102800062
:10324000200f2000008060001e0070002002880017
:103250000080fa00000006000000fa00c3e8a800a1
:1032600000000000000000000080fa0000000600de
:103270000000fa0086ff0700afff0700cfff07003e
:10328000e1fe070082fe070023fe0700140007008e
:10329000f1ff070000022000e6ff07000080fa00af
:1032a000000006000000fa001000200000808800e6
:1032b0000080fa00000006000000fa001000200064
:1032c000108088000080fa00000006000000fa006c
:1032d00010002000208088000080fa000000060016
:1032e0000000fa000008a900c208a8002008a800f1
:1032f0000288a900c228a8002288a80003a8a90063
:10330000c248a80023a8a8000080fa000000060018
:020000040000fa
:10331000f03fb1000180b10006003500ee03090066
:1033200000000000403fb1000180b100fbff3d0004
:103330001000b000203fb0000200350000800900fe
:0833400000000000000006007f
:020000040000fa
:103348000200fa00000f78009e007800b180880023
:10335800ffff37000000fa00e01121008007780025
:1033680060132100000188000080fa0000000600b8
:020000040000fa
:020000040005f5
:04570000ffffff00a8
:020000040000fa
:020000040005f5
:04572000ffff000087
:020000040000fa
:020000040005f5
:045730007aff0000fc
:020000040000fa
:020000040005f5
:04573800baff0000b4
:020000040000fa
:020000040005f5
:045740009fff0000c7
:020000040000fa
:020000040005f5
:04574800ffff00005f
:020000040000fa
:020000040005f5
:04575000ffff000057
:020000040000fa
:020000040005f5
:04575800000000004d
:020000040000fa
:020000040005f5
:045760000000000045
:020000040000fa
:020000040005f5
:04576800000000003d
:020000040000fa
:020000040005f5
:045770000000000035
:020000040000fa
:020000040005f5
:04577800feff000030
:020000040000fa
:020000040005f5
:04578000ffff000027
:020000040000fa
:020000040005f5
:04578800ffff00001f
:00000001FF
